{
	"contracts/KipuBank.sol": {
		"KipuBank": {
			"abi": [
				{
					"inputs": [
						{
							"internalType": "uint256",
							"name": "_bankCap",
							"type": "uint256"
						},
						{
							"internalType": "uint256",
							"name": "_withdrawLimit",
							"type": "uint256"
						}
					],
					"stateMutability": "nonpayable",
					"type": "constructor"
				},
				{
					"inputs": [
						{
							"internalType": "uint256",
							"name": "attempted",
							"type": "uint256"
						},
						{
							"internalType": "uint256",
							"name": "cap",
							"type": "uint256"
						}
					],
					"name": "ExceedsBankCap",
					"type": "error"
				},
				{
					"inputs": [
						{
							"internalType": "uint256",
							"name": "attempted",
							"type": "uint256"
						},
						{
							"internalType": "uint256",
							"name": "limit",
							"type": "uint256"
						}
					],
					"name": "ExceedsWithdrawLimit",
					"type": "error"
				},
				{
					"inputs": [
						{
							"internalType": "uint256",
							"name": "available",
							"type": "uint256"
						},
						{
							"internalType": "uint256",
							"name": "requested",
							"type": "uint256"
						}
					],
					"name": "InsufficientBalance",
					"type": "error"
				},
				{
					"inputs": [],
					"name": "ReentrancyAttack",
					"type": "error"
				},
				{
					"inputs": [
						{
							"internalType": "address",
							"name": "to",
							"type": "address"
						},
						{
							"internalType": "uint256",
							"name": "amount",
							"type": "uint256"
						}
					],
					"name": "TransferFailed",
					"type": "error"
				},
				{
					"inputs": [],
					"name": "ZeroDeposit",
					"type": "error"
				},
				{
					"anonymous": false,
					"inputs": [
						{
							"indexed": true,
							"internalType": "address",
							"name": "user",
							"type": "address"
						},
						{
							"indexed": false,
							"internalType": "uint256",
							"name": "amount",
							"type": "uint256"
						}
					],
					"name": "Deposit",
					"type": "event"
				},
				{
					"anonymous": false,
					"inputs": [
						{
							"indexed": true,
							"internalType": "address",
							"name": "user",
							"type": "address"
						},
						{
							"indexed": false,
							"internalType": "uint256",
							"name": "amount",
							"type": "uint256"
						}
					],
					"name": "Withdrawal",
					"type": "event"
				},
				{
					"inputs": [],
					"name": "bankBalance",
					"outputs": [
						{
							"internalType": "uint256",
							"name": "",
							"type": "uint256"
						}
					],
					"stateMutability": "view",
					"type": "function"
				},
				{
					"inputs": [],
					"name": "bankCap",
					"outputs": [
						{
							"internalType": "uint256",
							"name": "",
							"type": "uint256"
						}
					],
					"stateMutability": "view",
					"type": "function"
				},
				{
					"inputs": [],
					"name": "deposit",
					"outputs": [],
					"stateMutability": "payable",
					"type": "function"
				},
				{
					"inputs": [
						{
							"internalType": "address",
							"name": "user",
							"type": "address"
						}
					],
					"name": "getBalance",
					"outputs": [
						{
							"internalType": "uint256",
							"name": "",
							"type": "uint256"
						}
					],
					"stateMutability": "view",
					"type": "function"
				},
				{
					"inputs": [
						{
							"internalType": "uint256",
							"name": "amount",
							"type": "uint256"
						}
					],
					"name": "withdraw",
					"outputs": [],
					"stateMutability": "nonpayable",
					"type": "function"
				},
				{
					"inputs": [],
					"name": "withdrawLimit",
					"outputs": [
						{
							"internalType": "uint256",
							"name": "",
							"type": "uint256"
						}
					],
					"stateMutability": "view",
					"type": "function"
				}
			],
			"devdoc": {
				"author": "Matías Chacón",
				"details": "Se implemnetan buenas prácticas de seguridad y manejo de errores personalizados",
				"errors": {
					"ExceedsBankCap(uint256,uint256)": [
						{
							"params": {
								"attempted": "Balance que se intentó alcanzar",
								"cap": "Límite máximo del banco"
							}
						}
					],
					"ExceedsWithdrawLimit(uint256,uint256)": [
						{
							"params": {
								"attempted": "Cantidad solicitada para retirar",
								"limit": "Límite máximo por transacción"
							}
						}
					],
					"InsufficientBalance(uint256,uint256)": [
						{
							"params": {
								"available": "Saldo disponible del usuario",
								"requested": "Cantidad solicitada para retirar"
							}
						}
					],
					"ReentrancyAttack()": [
						{
							"details": "Usamos un bloqueo simple para prevenir ataques de reentrancy"
						}
					],
					"TransferFailed(address,uint256)": [
						{
							"params": {
								"amount": "Cantidad que se intentó enviar",
								"to": "Dirección a la que se intentó enviar ETH"
							}
						}
					]
				},
				"kind": "dev",
				"methods": {
					"constructor": {
						"params": {
							"_bankCap": "Límite global de depósitos",
							"_withdrawLimit": "Límite máximo por retiro"
						}
					},
					"deposit()": {
						"details": "Usa el modificador underBankCap para validar el límite global y noReentrancy"
					},
					"getBalance(address)": {
						"params": {
							"user": "Dirección del usuario para consultar el saldo"
						}
					},
					"withdraw(uint256)": {
						"details": "Sigue checks-effects-interactions y usa noReentrancy"
					}
				},
				"title": "KipuBank - Un smart contract seguro para depósitos y retiros de ETH",
				"version": 1
			},
			"evm": {
				"assembly": "    /* \"contracts/KipuBank.sol\":360:6355  contract KipuBank {... */\n  mstore(0x40, 0xc0)\n    /* \"contracts/KipuBank.sol\":3811:3943  constructor(uint256 _bankCap, uint256 _withdrawLimit) {... */\n  callvalue\n  dup1\n  iszero\n  tag_1\n  jumpi\n  revert(0x00, 0x00)\ntag_1:\n  pop\n  mload(0x40)\n  sub(codesize, bytecodeSize)\n  dup1\n  bytecodeSize\n  dup4\n  codecopy\n  dup2\n  dup2\n  add\n  0x40\n  mstore\n  dup2\n  add\n  swap1\n  tag_2\n  swap2\n  swap1\n  tag_3\n  jump\t// in\ntag_2:\n    /* \"contracts/KipuBank.sol\":3886:3894  _bankCap */\n  dup2\n    /* \"contracts/KipuBank.sol\":3876:3894  bankCap = _bankCap */\n  0x80\n  dup2\n  dup2\n  mstore\n  pop\n  pop\n    /* \"contracts/KipuBank.sol\":3921:3935  _withdrawLimit */\n  dup1\n    /* \"contracts/KipuBank.sol\":3905:3935  withdrawLimit = _withdrawLimit */\n  0xa0\n  dup2\n  dup2\n  mstore\n  pop\n  pop\n    /* \"contracts/KipuBank.sol\":3811:3943  constructor(uint256 _bankCap, uint256 _withdrawLimit) {... */\n  pop\n  pop\n    /* \"contracts/KipuBank.sol\":360:6355  contract KipuBank {... */\n  jump(tag_6)\n    /* \"#utility.yul\":88:205   */\ntag_8:\n    /* \"#utility.yul\":197:198   */\n  0x00\n    /* \"#utility.yul\":194:195   */\n  0x00\n    /* \"#utility.yul\":187:199   */\n  revert\n    /* \"#utility.yul\":334:411   */\ntag_10:\n    /* \"#utility.yul\":371:378   */\n  0x00\n    /* \"#utility.yul\":400:405   */\n  dup2\n    /* \"#utility.yul\":389:405   */\n  swap1\n  pop\n    /* \"#utility.yul\":334:411   */\n  swap2\n  swap1\n  pop\n  jump\t// out\n    /* \"#utility.yul\":417:539   */\ntag_11:\n    /* \"#utility.yul\":490:514   */\n  tag_19\n    /* \"#utility.yul\":508:513   */\n  dup2\n    /* \"#utility.yul\":490:514   */\n  tag_10\n  jump\t// in\ntag_19:\n    /* \"#utility.yul\":483:488   */\n  dup2\n    /* \"#utility.yul\":480:515   */\n  eq\n    /* \"#utility.yul\":470:533   */\n  tag_20\n  jumpi\n    /* \"#utility.yul\":529:530   */\n  0x00\n    /* \"#utility.yul\":526:527   */\n  0x00\n    /* \"#utility.yul\":519:531   */\n  revert\n    /* \"#utility.yul\":470:533   */\ntag_20:\n    /* \"#utility.yul\":417:539   */\n  pop\n  jump\t// out\n    /* \"#utility.yul\":545:688   */\ntag_12:\n    /* \"#utility.yul\":602:607   */\n  0x00\n    /* \"#utility.yul\":633:639   */\n  dup2\n    /* \"#utility.yul\":627:640   */\n  mload\n    /* \"#utility.yul\":618:640   */\n  swap1\n  pop\n    /* \"#utility.yul\":649:682   */\n  tag_22\n    /* \"#utility.yul\":676:681   */\n  dup2\n    /* \"#utility.yul\":649:682   */\n  tag_11\n  jump\t// in\ntag_22:\n    /* \"#utility.yul\":545:688   */\n  swap3\n  swap2\n  pop\n  pop\n  jump\t// out\n    /* \"#utility.yul\":694:1201   */\ntag_3:\n    /* \"#utility.yul\":773:779   */\n  0x00\n    /* \"#utility.yul\":781:787   */\n  0x00\n    /* \"#utility.yul\":830:832   */\n  0x40\n    /* \"#utility.yul\":818:827   */\n  dup4\n    /* \"#utility.yul\":809:816   */\n  dup6\n    /* \"#utility.yul\":805:828   */\n  sub\n    /* \"#utility.yul\":801:833   */\n  slt\n    /* \"#utility.yul\":798:917   */\n  iszero\n  tag_24\n  jumpi\n    /* \"#utility.yul\":836:915   */\n  tag_25\n  tag_8\n  jump\t// in\ntag_25:\n    /* \"#utility.yul\":798:917   */\ntag_24:\n    /* \"#utility.yul\":956:957   */\n  0x00\n    /* \"#utility.yul\":981:1045   */\n  tag_26\n    /* \"#utility.yul\":1037:1044   */\n  dup6\n    /* \"#utility.yul\":1028:1034   */\n  dup3\n    /* \"#utility.yul\":1017:1026   */\n  dup7\n    /* \"#utility.yul\":1013:1035   */\n  add\n    /* \"#utility.yul\":981:1045   */\n  tag_12\n  jump\t// in\ntag_26:\n    /* \"#utility.yul\":971:1045   */\n  swap3\n  pop\n    /* \"#utility.yul\":927:1055   */\n  pop\n    /* \"#utility.yul\":1094:1096   */\n  0x20\n    /* \"#utility.yul\":1120:1184   */\n  tag_27\n    /* \"#utility.yul\":1176:1183   */\n  dup6\n    /* \"#utility.yul\":1167:1173   */\n  dup3\n    /* \"#utility.yul\":1156:1165   */\n  dup7\n    /* \"#utility.yul\":1152:1174   */\n  add\n    /* \"#utility.yul\":1120:1184   */\n  tag_12\n  jump\t// in\ntag_27:\n    /* \"#utility.yul\":1110:1184   */\n  swap2\n  pop\n    /* \"#utility.yul\":1065:1194   */\n  pop\n    /* \"#utility.yul\":694:1201   */\n  swap3\n  pop\n  swap3\n  swap1\n  pop\n  jump\t// out\n    /* \"contracts/KipuBank.sol\":360:6355  contract KipuBank {... */\ntag_6:\n  mload(0x80)\n  mload(0xa0)\n  codecopy(0x00, dataOffset(sub_0), dataSize(sub_0))\n  0x00\n  assignImmutable(\"0xe4b1702d9298fee62dfeccc57d322a463ad55ca201256d01f62b45b2e1c21c10\")\n  0x00\n  assignImmutable(\"0xceebf77a833b30520287ddd9478ff51abbdffa30aa90a8d655dba0e8a79ce0c1\")\n  return(0x00, dataSize(sub_0))\nstop\n\nsub_0: assembly {\n        /* \"contracts/KipuBank.sol\":360:6355  contract KipuBank {... */\n      mstore(0x40, 0x80)\n      jumpi(tag_1, lt(calldatasize, 0x04))\n      shr(0xe0, calldataload(0x00))\n      dup1\n      0x28657aa5\n      eq\n      tag_2\n      jumpi\n      dup1\n      0x2e1a7d4d\n      eq\n      tag_3\n      jumpi\n      dup1\n      0xd0e30db0\n      eq\n      tag_4\n      jumpi\n      dup1\n      0xecbea24d\n      eq\n      tag_5\n      jumpi\n      dup1\n      0xf848d541\n      eq\n      tag_6\n      jumpi\n      dup1\n      0xf8b2cb4f\n      eq\n      tag_7\n      jumpi\n    tag_1:\n      revert(0x00, 0x00)\n        /* \"contracts/KipuBank.sol\":6250:6352  function bankBalance() external view returns (uint256) {... */\n    tag_2:\n      callvalue\n      dup1\n      iszero\n      tag_8\n      jumpi\n      revert(0x00, 0x00)\n    tag_8:\n      pop\n      tag_9\n      tag_10\n      jump\t// in\n    tag_9:\n      mload(0x40)\n      tag_11\n      swap2\n      swap1\n      tag_12\n      jump\t// in\n    tag_11:\n      mload(0x40)\n      dup1\n      swap2\n      sub\n      swap1\n      return\n        /* \"contracts/KipuBank.sol\":4770:5560  function withdraw(uint256 amount) external withinWithdrawLimit(amount) noReentrancy {... */\n    tag_3:\n      callvalue\n      dup1\n      iszero\n      tag_13\n      jumpi\n      revert(0x00, 0x00)\n    tag_13:\n      pop\n      tag_14\n      0x04\n      dup1\n      calldatasize\n      sub\n      dup2\n      add\n      swap1\n      tag_15\n      swap2\n      swap1\n      tag_16\n      jump\t// in\n    tag_15:\n      tag_17\n      jump\t// in\n    tag_14:\n      stop\n        /* \"contracts/KipuBank.sol\":4193:4630  function deposit() external payable underBankCap(msg.value) noReentrancy {... */\n    tag_4:\n      tag_18\n      tag_19\n      jump\t// in\n    tag_18:\n      stop\n        /* \"contracts/KipuBank.sol\":519:551  uint256 public immutable bankCap */\n    tag_5:\n      callvalue\n      dup1\n      iszero\n      tag_20\n      jumpi\n      revert(0x00, 0x00)\n    tag_20:\n      pop\n      tag_21\n      tag_22\n      jump\t// in\n    tag_21:\n      mload(0x40)\n      tag_23\n      swap2\n      swap1\n      tag_12\n      jump\t// in\n    tag_23:\n      mload(0x40)\n      dup1\n      swap2\n      sub\n      swap1\n      return\n        /* \"contracts/KipuBank.sol\":604:642  uint256 public immutable withdrawLimit */\n    tag_6:\n      callvalue\n      dup1\n      iszero\n      tag_24\n      jumpi\n      revert(0x00, 0x00)\n    tag_24:\n      pop\n      tag_25\n      tag_26\n      jump\t// in\n    tag_25:\n      mload(0x40)\n      tag_27\n      swap2\n      swap1\n      tag_12\n      jump\t// in\n    tag_27:\n      mload(0x40)\n      dup1\n      swap2\n      sub\n      swap1\n      return\n        /* \"contracts/KipuBank.sol\":6070:6174  function getBalance(address user) external view returns (uint256) {... */\n    tag_7:\n      callvalue\n      dup1\n      iszero\n      tag_28\n      jumpi\n      revert(0x00, 0x00)\n    tag_28:\n      pop\n      tag_29\n      0x04\n      dup1\n      calldatasize\n      sub\n      dup2\n      add\n      swap1\n      tag_30\n      swap2\n      swap1\n      tag_31\n      jump\t// in\n    tag_30:\n      tag_32\n      jump\t// in\n    tag_29:\n      mload(0x40)\n      tag_33\n      swap2\n      swap1\n      tag_12\n      jump\t// in\n    tag_33:\n      mload(0x40)\n      dup1\n      swap2\n      sub\n      swap1\n      return\n        /* \"contracts/KipuBank.sol\":6250:6352  function bankBalance() external view returns (uint256) {... */\n    tag_10:\n        /* \"contracts/KipuBank.sol\":6296:6303  uint256 */\n      0x00\n        /* \"contracts/KipuBank.sol\":6323:6344  address(this).balance */\n      selfbalance\n        /* \"contracts/KipuBank.sol\":6316:6344  return address(this).balance */\n      swap1\n      pop\n        /* \"contracts/KipuBank.sol\":6250:6352  function bankBalance() external view returns (uint256) {... */\n      swap1\n      jump\t// out\n        /* \"contracts/KipuBank.sol\":4770:5560  function withdraw(uint256 amount) external withinWithdrawLimit(amount) noReentrancy {... */\n    tag_17:\n        /* \"contracts/KipuBank.sol\":4833:4839  amount */\n      dup1\n        /* \"contracts/KipuBank.sol\":3437:3450  withdrawLimit */\n      immutable(\"0xe4b1702d9298fee62dfeccc57d322a463ad55ca201256d01f62b45b2e1c21c10\")\n        /* \"contracts/KipuBank.sol\":3428:3434  amount */\n      dup2\n        /* \"contracts/KipuBank.sol\":3428:3450  amount > withdrawLimit */\n      gt\n        /* \"contracts/KipuBank.sol\":3425:3529  if(amount > withdrawLimit) {... */\n      iszero\n      tag_36\n      jumpi\n        /* \"contracts/KipuBank.sol\":3495:3501  amount */\n      dup1\n        /* \"contracts/KipuBank.sol\":3503:3516  withdrawLimit */\n      immutable(\"0xe4b1702d9298fee62dfeccc57d322a463ad55ca201256d01f62b45b2e1c21c10\")\n        /* \"contracts/KipuBank.sol\":3474:3517  ExceedsWithdrawLimit(amount, withdrawLimit) */\n      mload(0x40)\n      0x9c8983d900000000000000000000000000000000000000000000000000000000\n      dup2\n      mstore\n      0x04\n      add\n      tag_37\n      swap3\n      swap2\n      swap1\n      tag_38\n      jump\t// in\n    tag_37:\n      mload(0x40)\n      dup1\n      swap2\n      sub\n      swap1\n      revert\n        /* \"contracts/KipuBank.sol\":3425:3529  if(amount > withdrawLimit) {... */\n    tag_36:\n        /* \"contracts/KipuBank.sol\":2842:2848  locked */\n      0x03\n      0x00\n      swap1\n      sload\n      swap1\n      0x0100\n      exp\n      swap1\n      div\n      0xff\n      and\n        /* \"contracts/KipuBank.sol\":2839:2902  if(locked) {... */\n      iszero\n      tag_40\n      jumpi\n        /* \"contracts/KipuBank.sol\":2872:2890  ReentrancyAttack() */\n      mload(0x40)\n      0xd0f87aea00000000000000000000000000000000000000000000000000000000\n      dup2\n      mstore\n      0x04\n      add\n      mload(0x40)\n      dup1\n      swap2\n      sub\n      swap1\n      revert\n        /* \"contracts/KipuBank.sol\":2839:2902  if(locked) {... */\n    tag_40:\n        /* \"contracts/KipuBank.sol\":2921:2925  true */\n      0x01\n        /* \"contracts/KipuBank.sol\":2912:2918  locked */\n      0x03\n      0x00\n        /* \"contracts/KipuBank.sol\":2912:2925  locked = true */\n      0x0100\n      exp\n      dup2\n      sload\n      dup2\n      0xff\n      mul\n      not\n      and\n      swap1\n      dup4\n      iszero\n      iszero\n      mul\n      or\n      swap1\n      sstore\n      pop\n        /* \"contracts/KipuBank.sol\":4921:4922  0 */\n      0x00\n        /* \"contracts/KipuBank.sol\":4911:4917  amount */\n      dup3\n        /* \"contracts/KipuBank.sol\":4911:4922  amount == 0 */\n      sub\n        /* \"contracts/KipuBank.sol\":4907:4956  if (amount == 0) revert InsufficientBalance(0, 0) */\n      tag_42\n      jumpi\n        /* \"contracts/KipuBank.sol\":4951:4952  0 */\n      0x00\n        /* \"contracts/KipuBank.sol\":4954:4955  0 */\n      0x00\n        /* \"contracts/KipuBank.sol\":4931:4956  InsufficientBalance(0, 0) */\n      mload(0x40)\n      0xcf47918100000000000000000000000000000000000000000000000000000000\n      dup2\n      mstore\n      0x04\n      add\n      tag_43\n      swap3\n      swap2\n      swap1\n      tag_44\n      jump\t// in\n    tag_43:\n      mload(0x40)\n      dup1\n      swap2\n      sub\n      swap1\n      revert\n        /* \"contracts/KipuBank.sol\":4907:4956  if (amount == 0) revert InsufficientBalance(0, 0) */\n    tag_42:\n        /* \"contracts/KipuBank.sol\":5006:5017  uint256 bal */\n      0x00\n        /* \"contracts/KipuBank.sol\":5020:5026  vaults */\n      0x00\n        /* \"contracts/KipuBank.sol\":5020:5038  vaults[msg.sender] */\n      0x00\n        /* \"contracts/KipuBank.sol\":5027:5037  msg.sender */\n      caller\n        /* \"contracts/KipuBank.sol\":5020:5038  vaults[msg.sender] */\n      0xffffffffffffffffffffffffffffffffffffffff\n      and\n      0xffffffffffffffffffffffffffffffffffffffff\n      and\n      dup2\n      mstore\n      0x20\n      add\n      swap1\n      dup2\n      mstore\n      0x20\n      add\n      0x00\n      keccak256\n      sload\n        /* \"contracts/KipuBank.sol\":5006:5038  uint256 bal = vaults[msg.sender] */\n      swap1\n      pop\n        /* \"contracts/KipuBank.sol\":5059:5065  amount */\n      dup3\n        /* \"contracts/KipuBank.sol\":5053:5056  bal */\n      dup2\n        /* \"contracts/KipuBank.sol\":5053:5065  bal < amount */\n      lt\n        /* \"contracts/KipuBank.sol\":5049:5106  if (bal < amount) revert InsufficientBalance(bal, amount) */\n      iszero\n      tag_45\n      jumpi\n        /* \"contracts/KipuBank.sol\":5094:5097  bal */\n      dup1\n        /* \"contracts/KipuBank.sol\":5099:5105  amount */\n      dup4\n        /* \"contracts/KipuBank.sol\":5074:5106  InsufficientBalance(bal, amount) */\n      mload(0x40)\n      0xcf47918100000000000000000000000000000000000000000000000000000000\n      dup2\n      mstore\n      0x04\n      add\n      tag_46\n      swap3\n      swap2\n      swap1\n      tag_38\n      jump\t// in\n    tag_46:\n      mload(0x40)\n      dup1\n      swap2\n      sub\n      swap1\n      revert\n        /* \"contracts/KipuBank.sol\":5049:5106  if (bal < amount) revert InsufficientBalance(bal, amount) */\n    tag_45:\n        /* \"contracts/KipuBank.sol\":5229:5235  amount */\n      dup3\n        /* \"contracts/KipuBank.sol\":5223:5226  bal */\n      dup2\n        /* \"contracts/KipuBank.sol\":5223:5235  bal - amount */\n      tag_47\n      swap2\n      swap1\n      tag_48\n      jump\t// in\n    tag_47:\n        /* \"contracts/KipuBank.sol\":5202:5208  vaults */\n      0x00\n        /* \"contracts/KipuBank.sol\":5202:5220  vaults[msg.sender] */\n      0x00\n        /* \"contracts/KipuBank.sol\":5209:5219  msg.sender */\n      caller\n        /* \"contracts/KipuBank.sol\":5202:5220  vaults[msg.sender] */\n      0xffffffffffffffffffffffffffffffffffffffff\n      and\n      0xffffffffffffffffffffffffffffffffffffffff\n      and\n      dup2\n      mstore\n      0x20\n      add\n      swap1\n      dup2\n      mstore\n      0x20\n      add\n      0x00\n      keccak256\n        /* \"contracts/KipuBank.sol\":5202:5235  vaults[msg.sender] = bal - amount */\n      dup2\n      swap1\n      sstore\n      pop\n        /* \"contracts/KipuBank.sol\":5246:5260  totalWithdraws */\n      0x02\n      0x00\n        /* \"contracts/KipuBank.sol\":5246:5262  totalWithdraws++ */\n      dup2\n      sload\n      dup1\n      swap3\n      swap2\n      swap1\n      tag_49\n      swap1\n      tag_50\n      jump\t// in\n    tag_49:\n      swap2\n      swap1\n      pop\n      sstore\n      pop\n        /* \"contracts/KipuBank.sol\":5337:5346  bool sent */\n      0x00\n        /* \"contracts/KipuBank.sol\":5352:5362  msg.sender */\n      caller\n        /* \"contracts/KipuBank.sol\":5352:5367  msg.sender.call */\n      0xffffffffffffffffffffffffffffffffffffffff\n      and\n        /* \"contracts/KipuBank.sol\":5375:5381  amount */\n      dup5\n        /* \"contracts/KipuBank.sol\":5352:5386  msg.sender.call{value: amount}(\"\") */\n      mload(0x40)\n      tag_51\n      swap1\n      tag_52\n      jump\t// in\n    tag_51:\n      0x00\n      mload(0x40)\n      dup1\n      dup4\n      sub\n      dup2\n      dup6\n      dup8\n      gas\n      call\n      swap3\n      pop\n      pop\n      pop\n      returndatasize\n      dup1\n      0x00\n      dup2\n      eq\n      tag_55\n      jumpi\n      mload(0x40)\n      swap2\n      pop\n      and(add(returndatasize, 0x3f), not(0x1f))\n      dup3\n      add\n      0x40\n      mstore\n      returndatasize\n      dup3\n      mstore\n      returndatasize\n      0x00\n      0x20\n      dup5\n      add\n      returndatacopy\n      jump(tag_54)\n    tag_55:\n      0x60\n      swap2\n      pop\n    tag_54:\n      pop\n        /* \"contracts/KipuBank.sol\":5336:5386  (bool sent, ) = msg.sender.call{value: amount}(\"\") */\n      pop\n      swap1\n      pop\n        /* \"contracts/KipuBank.sol\":5402:5406  sent */\n      dup1\n        /* \"contracts/KipuBank.sol\":5397:5449  if (!sent) revert TransferFailed(msg.sender, amount) */\n      tag_56\n      jumpi\n        /* \"contracts/KipuBank.sol\":5430:5440  msg.sender */\n      caller\n        /* \"contracts/KipuBank.sol\":5442:5448  amount */\n      dup5\n        /* \"contracts/KipuBank.sol\":5415:5449  TransferFailed(msg.sender, amount) */\n      mload(0x40)\n      0x1c43b97600000000000000000000000000000000000000000000000000000000\n      dup2\n      mstore\n      0x04\n      add\n      tag_57\n      swap3\n      swap2\n      swap1\n      tag_58\n      jump\t// in\n    tag_57:\n      mload(0x40)\n      dup1\n      swap2\n      sub\n      swap1\n      revert\n        /* \"contracts/KipuBank.sol\":5397:5449  if (!sent) revert TransferFailed(msg.sender, amount) */\n    tag_56:\n        /* \"contracts/KipuBank.sol\":5514:5524  msg.sender */\n      caller\n        /* \"contracts/KipuBank.sol\":5503:5533  Withdrawal(msg.sender, amount) */\n      0xffffffffffffffffffffffffffffffffffffffff\n      and\n      0x7fcf532c15f0a6db0bd6d0e038bea71d30d808c7d98cb3bf7268a95bf5081b65\n        /* \"contracts/KipuBank.sol\":5526:5532  amount */\n      dup6\n        /* \"contracts/KipuBank.sol\":5503:5533  Withdrawal(msg.sender, amount) */\n      mload(0x40)\n      tag_59\n      swap2\n      swap1\n      tag_12\n      jump\t// in\n    tag_59:\n      mload(0x40)\n      dup1\n      swap2\n      sub\n      swap1\n      log2\n        /* \"contracts/KipuBank.sol\":4854:5560  {... */\n      pop\n      pop\n        /* \"contracts/KipuBank.sol\":2957:2962  false */\n      0x00\n        /* \"contracts/KipuBank.sol\":2948:2954  locked */\n      0x03\n      0x00\n        /* \"contracts/KipuBank.sol\":2948:2962  locked = false */\n      0x0100\n      exp\n      dup2\n      sload\n      dup2\n      0xff\n      mul\n      not\n      and\n      swap1\n      dup4\n      iszero\n      iszero\n      mul\n      or\n      swap1\n      sstore\n      pop\n        /* \"contracts/KipuBank.sol\":4770:5560  function withdraw(uint256 amount) external withinWithdrawLimit(amount) noReentrancy {... */\n      pop\n      pop\n      jump\t// out\n        /* \"contracts/KipuBank.sol\":4193:4630  function deposit() external payable underBankCap(msg.value) noReentrancy {... */\n    tag_19:\n        /* \"contracts/KipuBank.sol\":4242:4251  msg.value */\n      callvalue\n        /* \"contracts/KipuBank.sol\":3154:3161  bankCap */\n      immutable(\"0xceebf77a833b30520287ddd9478ff51abbdffa30aa90a8d655dba0e8a79ce0c1\")\n        /* \"contracts/KipuBank.sol\":3145:3151  amount */\n      dup2\n        /* \"contracts/KipuBank.sol\":3121:3142  address(this).balance */\n      selfbalance\n        /* \"contracts/KipuBank.sol\":3121:3151  address(this).balance + amount */\n      tag_61\n      swap2\n      swap1\n      tag_62\n      jump\t// in\n    tag_61:\n        /* \"contracts/KipuBank.sol\":3121:3161  address(this).balance + amount > bankCap */\n      gt\n        /* \"contracts/KipuBank.sol\":3118:3252  if(address(this).balance + amount > bankCap) {... */\n      iszero\n      tag_63\n      jumpi\n        /* \"contracts/KipuBank.sol\":3224:3230  amount */\n      dup1\n        /* \"contracts/KipuBank.sol\":3200:3221  address(this).balance */\n      selfbalance\n        /* \"contracts/KipuBank.sol\":3200:3230  address(this).balance + amount */\n      tag_64\n      swap2\n      swap1\n      tag_62\n      jump\t// in\n    tag_64:\n        /* \"contracts/KipuBank.sol\":3232:3239  bankCap */\n      immutable(\"0xceebf77a833b30520287ddd9478ff51abbdffa30aa90a8d655dba0e8a79ce0c1\")\n        /* \"contracts/KipuBank.sol\":3185:3240  ExceedsBankCap(address(this).balance + amount, bankCap) */\n      mload(0x40)\n      0x4274ef7700000000000000000000000000000000000000000000000000000000\n      dup2\n      mstore\n      0x04\n      add\n      tag_65\n      swap3\n      swap2\n      swap1\n      tag_38\n      jump\t// in\n    tag_65:\n      mload(0x40)\n      dup1\n      swap2\n      sub\n      swap1\n      revert\n        /* \"contracts/KipuBank.sol\":3118:3252  if(address(this).balance + amount > bankCap) {... */\n    tag_63:\n        /* \"contracts/KipuBank.sol\":2842:2848  locked */\n      0x03\n      0x00\n      swap1\n      sload\n      swap1\n      0x0100\n      exp\n      swap1\n      div\n      0xff\n      and\n        /* \"contracts/KipuBank.sol\":2839:2902  if(locked) {... */\n      iszero\n      tag_67\n      jumpi\n        /* \"contracts/KipuBank.sol\":2872:2890  ReentrancyAttack() */\n      mload(0x40)\n      0xd0f87aea00000000000000000000000000000000000000000000000000000000\n      dup2\n      mstore\n      0x04\n      add\n      mload(0x40)\n      dup1\n      swap2\n      sub\n      swap1\n      revert\n        /* \"contracts/KipuBank.sol\":2839:2902  if(locked) {... */\n    tag_67:\n        /* \"contracts/KipuBank.sol\":2921:2925  true */\n      0x01\n        /* \"contracts/KipuBank.sol\":2912:2918  locked */\n      0x03\n      0x00\n        /* \"contracts/KipuBank.sol\":2912:2925  locked = true */\n      0x0100\n      exp\n      dup2\n      sload\n      dup2\n      0xff\n      mul\n      not\n      and\n      swap1\n      dup4\n      iszero\n      iszero\n      mul\n      or\n      swap1\n      sstore\n      pop\n        /* \"contracts/KipuBank.sol\":4293:4294  0 */\n      0x00\n        /* \"contracts/KipuBank.sol\":4280:4289  msg.value */\n      callvalue\n        /* \"contracts/KipuBank.sol\":4280:4294  msg.value == 0 */\n      sub\n        /* \"contracts/KipuBank.sol\":4277:4397  if(msg.value == 0) {... */\n      tag_69\n      jumpi\n        /* \"contracts/KipuBank.sol\":4318:4331  ZeroDeposit() */\n      mload(0x40)\n      0x56316e8700000000000000000000000000000000000000000000000000000000\n      dup2\n      mstore\n      0x04\n      add\n      mload(0x40)\n      dup1\n      swap2\n      sub\n      swap1\n      revert\n        /* \"contracts/KipuBank.sol\":4277:4397  if(msg.value == 0) {... */\n    tag_69:\n        /* \"contracts/KipuBank.sol\":4409:4443  _addToVault(msg.sender, msg.value) */\n      tag_70\n        /* \"contracts/KipuBank.sol\":4421:4431  msg.sender */\n      caller\n        /* \"contracts/KipuBank.sol\":4433:4442  msg.value */\n      callvalue\n        /* \"contracts/KipuBank.sol\":4409:4420  _addToVault */\n      tag_71\n        /* \"contracts/KipuBank.sol\":4409:4443  _addToVault(msg.sender, msg.value) */\n      jump\t// in\n    tag_70:\n        /* \"contracts/KipuBank.sol\":4500:4513  totalDeposits */\n      0x01\n      0x00\n        /* \"contracts/KipuBank.sol\":4500:4515  totalDeposits++ */\n      dup2\n      sload\n      dup1\n      swap3\n      swap2\n      swap1\n      tag_72\n      swap1\n      tag_50\n      jump\t// in\n    tag_72:\n      swap2\n      swap1\n      pop\n      sstore\n      pop\n        /* \"contracts/KipuBank.sol\":4581:4591  msg.sender */\n      caller\n        /* \"contracts/KipuBank.sol\":4573:4603  Deposit(msg.sender, msg.value) */\n      0xffffffffffffffffffffffffffffffffffffffff\n      and\n      0xe1fffcc4923d04b559f4d29a8bfc6cda04eb5b0d3c460751c2402c5c5cc9109c\n        /* \"contracts/KipuBank.sol\":4593:4602  msg.value */\n      callvalue\n        /* \"contracts/KipuBank.sol\":4573:4603  Deposit(msg.sender, msg.value) */\n      mload(0x40)\n      tag_73\n      swap2\n      swap1\n      tag_12\n      jump\t// in\n    tag_73:\n      mload(0x40)\n      dup1\n      swap2\n      sub\n      swap1\n      log2\n        /* \"contracts/KipuBank.sol\":2957:2962  false */\n      0x00\n        /* \"contracts/KipuBank.sol\":2948:2954  locked */\n      0x03\n      0x00\n        /* \"contracts/KipuBank.sol\":2948:2962  locked = false */\n      0x0100\n      exp\n      dup2\n      sload\n      dup2\n      0xff\n      mul\n      not\n      and\n      swap1\n      dup4\n      iszero\n      iszero\n      mul\n      or\n      swap1\n      sstore\n      pop\n        /* \"contracts/KipuBank.sol\":4193:4630  function deposit() external payable underBankCap(msg.value) noReentrancy {... */\n      pop\n      jump\t// out\n        /* \"contracts/KipuBank.sol\":519:551  uint256 public immutable bankCap */\n    tag_22:\n      immutable(\"0xceebf77a833b30520287ddd9478ff51abbdffa30aa90a8d655dba0e8a79ce0c1\")\n      dup2\n      jump\t// out\n        /* \"contracts/KipuBank.sol\":604:642  uint256 public immutable withdrawLimit */\n    tag_26:\n      immutable(\"0xe4b1702d9298fee62dfeccc57d322a463ad55ca201256d01f62b45b2e1c21c10\")\n      dup2\n      jump\t// out\n        /* \"contracts/KipuBank.sol\":6070:6174  function getBalance(address user) external view returns (uint256) {... */\n    tag_32:\n        /* \"contracts/KipuBank.sol\":6127:6134  uint256 */\n      0x00\n        /* \"contracts/KipuBank.sol\":6154:6160  vaults */\n      0x00\n        /* \"contracts/KipuBank.sol\":6154:6166  vaults[user] */\n      0x00\n        /* \"contracts/KipuBank.sol\":6161:6165  user */\n      dup4\n        /* \"contracts/KipuBank.sol\":6154:6166  vaults[user] */\n      0xffffffffffffffffffffffffffffffffffffffff\n      and\n      0xffffffffffffffffffffffffffffffffffffffff\n      and\n      dup2\n      mstore\n      0x20\n      add\n      swap1\n      dup2\n      mstore\n      0x20\n      add\n      0x00\n      keccak256\n      sload\n        /* \"contracts/KipuBank.sol\":6147:6166  return vaults[user] */\n      swap1\n      pop\n        /* \"contracts/KipuBank.sol\":6070:6174  function getBalance(address user) external view returns (uint256) {... */\n      swap2\n      swap1\n      pop\n      jump\t// out\n        /* \"contracts/KipuBank.sol\":5836:5936  function _addToVault(address user, uint256 amount) private {... */\n    tag_71:\n        /* \"contracts/KipuBank.sol\":5922:5928  amount */\n      dup1\n        /* \"contracts/KipuBank.sol\":5906:5912  vaults */\n      0x00\n        /* \"contracts/KipuBank.sol\":5906:5918  vaults[user] */\n      0x00\n        /* \"contracts/KipuBank.sol\":5913:5917  user */\n      dup5\n        /* \"contracts/KipuBank.sol\":5906:5918  vaults[user] */\n      0xffffffffffffffffffffffffffffffffffffffff\n      and\n      0xffffffffffffffffffffffffffffffffffffffff\n      and\n      dup2\n      mstore\n      0x20\n      add\n      swap1\n      dup2\n      mstore\n      0x20\n      add\n      0x00\n      keccak256\n      0x00\n        /* \"contracts/KipuBank.sol\":5906:5928  vaults[user] += amount */\n      dup3\n      dup3\n      sload\n      tag_76\n      swap2\n      swap1\n      tag_62\n      jump\t// in\n    tag_76:\n      swap3\n      pop\n      pop\n      dup2\n      swap1\n      sstore\n      pop\n        /* \"contracts/KipuBank.sol\":5836:5936  function _addToVault(address user, uint256 amount) private {... */\n      pop\n      pop\n      jump\t// out\n        /* \"#utility.yul\":7:84   */\n    tag_77:\n        /* \"#utility.yul\":44:51   */\n      0x00\n        /* \"#utility.yul\":73:78   */\n      dup2\n        /* \"#utility.yul\":62:78   */\n      swap1\n      pop\n        /* \"#utility.yul\":7:84   */\n      swap2\n      swap1\n      pop\n      jump\t// out\n        /* \"#utility.yul\":90:208   */\n    tag_78:\n        /* \"#utility.yul\":177:201   */\n      tag_100\n        /* \"#utility.yul\":195:200   */\n      dup2\n        /* \"#utility.yul\":177:201   */\n      tag_77\n      jump\t// in\n    tag_100:\n        /* \"#utility.yul\":172:175   */\n      dup3\n        /* \"#utility.yul\":165:202   */\n      mstore\n        /* \"#utility.yul\":90:208   */\n      pop\n      pop\n      jump\t// out\n        /* \"#utility.yul\":214:436   */\n    tag_12:\n        /* \"#utility.yul\":307:311   */\n      0x00\n        /* \"#utility.yul\":345:347   */\n      0x20\n        /* \"#utility.yul\":334:343   */\n      dup3\n        /* \"#utility.yul\":330:348   */\n      add\n        /* \"#utility.yul\":322:348   */\n      swap1\n      pop\n        /* \"#utility.yul\":358:429   */\n      tag_102\n        /* \"#utility.yul\":426:427   */\n      0x00\n        /* \"#utility.yul\":415:424   */\n      dup4\n        /* \"#utility.yul\":411:428   */\n      add\n        /* \"#utility.yul\":402:408   */\n      dup5\n        /* \"#utility.yul\":358:429   */\n      tag_78\n      jump\t// in\n    tag_102:\n        /* \"#utility.yul\":214:436   */\n      swap3\n      swap2\n      pop\n      pop\n      jump\t// out\n        /* \"#utility.yul\":523:640   */\n    tag_80:\n        /* \"#utility.yul\":632:633   */\n      0x00\n        /* \"#utility.yul\":629:630   */\n      0x00\n        /* \"#utility.yul\":622:634   */\n      revert\n        /* \"#utility.yul\":769:891   */\n    tag_82:\n        /* \"#utility.yul\":842:866   */\n      tag_107\n        /* \"#utility.yul\":860:865   */\n      dup2\n        /* \"#utility.yul\":842:866   */\n      tag_77\n      jump\t// in\n    tag_107:\n        /* \"#utility.yul\":835:840   */\n      dup2\n        /* \"#utility.yul\":832:867   */\n      eq\n        /* \"#utility.yul\":822:885   */\n      tag_108\n      jumpi\n        /* \"#utility.yul\":881:882   */\n      0x00\n        /* \"#utility.yul\":878:879   */\n      0x00\n        /* \"#utility.yul\":871:883   */\n      revert\n        /* \"#utility.yul\":822:885   */\n    tag_108:\n        /* \"#utility.yul\":769:891   */\n      pop\n      jump\t// out\n        /* \"#utility.yul\":897:1036   */\n    tag_83:\n        /* \"#utility.yul\":943:948   */\n      0x00\n        /* \"#utility.yul\":981:987   */\n      dup2\n        /* \"#utility.yul\":968:988   */\n      calldataload\n        /* \"#utility.yul\":959:988   */\n      swap1\n      pop\n        /* \"#utility.yul\":997:1030   */\n      tag_110\n        /* \"#utility.yul\":1024:1029   */\n      dup2\n        /* \"#utility.yul\":997:1030   */\n      tag_82\n      jump\t// in\n    tag_110:\n        /* \"#utility.yul\":897:1036   */\n      swap3\n      swap2\n      pop\n      pop\n      jump\t// out\n        /* \"#utility.yul\":1042:1371   */\n    tag_16:\n        /* \"#utility.yul\":1101:1107   */\n      0x00\n        /* \"#utility.yul\":1150:1152   */\n      0x20\n        /* \"#utility.yul\":1138:1147   */\n      dup3\n        /* \"#utility.yul\":1129:1136   */\n      dup5\n        /* \"#utility.yul\":1125:1148   */\n      sub\n        /* \"#utility.yul\":1121:1153   */\n      slt\n        /* \"#utility.yul\":1118:1237   */\n      iszero\n      tag_112\n      jumpi\n        /* \"#utility.yul\":1156:1235   */\n      tag_113\n      tag_80\n      jump\t// in\n    tag_113:\n        /* \"#utility.yul\":1118:1237   */\n    tag_112:\n        /* \"#utility.yul\":1276:1277   */\n      0x00\n        /* \"#utility.yul\":1301:1354   */\n      tag_114\n        /* \"#utility.yul\":1346:1353   */\n      dup5\n        /* \"#utility.yul\":1337:1343   */\n      dup3\n        /* \"#utility.yul\":1326:1335   */\n      dup6\n        /* \"#utility.yul\":1322:1344   */\n      add\n        /* \"#utility.yul\":1301:1354   */\n      tag_83\n      jump\t// in\n    tag_114:\n        /* \"#utility.yul\":1291:1354   */\n      swap2\n      pop\n        /* \"#utility.yul\":1247:1364   */\n      pop\n        /* \"#utility.yul\":1042:1371   */\n      swap3\n      swap2\n      pop\n      pop\n      jump\t// out\n        /* \"#utility.yul\":1377:1503   */\n    tag_84:\n        /* \"#utility.yul\":1414:1421   */\n      0x00\n        /* \"#utility.yul\":1454:1496   */\n      0xffffffffffffffffffffffffffffffffffffffff\n        /* \"#utility.yul\":1447:1452   */\n      dup3\n        /* \"#utility.yul\":1443:1497   */\n      and\n        /* \"#utility.yul\":1432:1497   */\n      swap1\n      pop\n        /* \"#utility.yul\":1377:1503   */\n      swap2\n      swap1\n      pop\n      jump\t// out\n        /* \"#utility.yul\":1509:1605   */\n    tag_85:\n        /* \"#utility.yul\":1546:1553   */\n      0x00\n        /* \"#utility.yul\":1575:1599   */\n      tag_117\n        /* \"#utility.yul\":1593:1598   */\n      dup3\n        /* \"#utility.yul\":1575:1599   */\n      tag_84\n      jump\t// in\n    tag_117:\n        /* \"#utility.yul\":1564:1599   */\n      swap1\n      pop\n        /* \"#utility.yul\":1509:1605   */\n      swap2\n      swap1\n      pop\n      jump\t// out\n        /* \"#utility.yul\":1611:1733   */\n    tag_86:\n        /* \"#utility.yul\":1684:1708   */\n      tag_119\n        /* \"#utility.yul\":1702:1707   */\n      dup2\n        /* \"#utility.yul\":1684:1708   */\n      tag_85\n      jump\t// in\n    tag_119:\n        /* \"#utility.yul\":1677:1682   */\n      dup2\n        /* \"#utility.yul\":1674:1709   */\n      eq\n        /* \"#utility.yul\":1664:1727   */\n      tag_120\n      jumpi\n        /* \"#utility.yul\":1723:1724   */\n      0x00\n        /* \"#utility.yul\":1720:1721   */\n      0x00\n        /* \"#utility.yul\":1713:1725   */\n      revert\n        /* \"#utility.yul\":1664:1727   */\n    tag_120:\n        /* \"#utility.yul\":1611:1733   */\n      pop\n      jump\t// out\n        /* \"#utility.yul\":1739:1878   */\n    tag_87:\n        /* \"#utility.yul\":1785:1790   */\n      0x00\n        /* \"#utility.yul\":1823:1829   */\n      dup2\n        /* \"#utility.yul\":1810:1830   */\n      calldataload\n        /* \"#utility.yul\":1801:1830   */\n      swap1\n      pop\n        /* \"#utility.yul\":1839:1872   */\n      tag_122\n        /* \"#utility.yul\":1866:1871   */\n      dup2\n        /* \"#utility.yul\":1839:1872   */\n      tag_86\n      jump\t// in\n    tag_122:\n        /* \"#utility.yul\":1739:1878   */\n      swap3\n      swap2\n      pop\n      pop\n      jump\t// out\n        /* \"#utility.yul\":1884:2213   */\n    tag_31:\n        /* \"#utility.yul\":1943:1949   */\n      0x00\n        /* \"#utility.yul\":1992:1994   */\n      0x20\n        /* \"#utility.yul\":1980:1989   */\n      dup3\n        /* \"#utility.yul\":1971:1978   */\n      dup5\n        /* \"#utility.yul\":1967:1990   */\n      sub\n        /* \"#utility.yul\":1963:1995   */\n      slt\n        /* \"#utility.yul\":1960:2079   */\n      iszero\n      tag_124\n      jumpi\n        /* \"#utility.yul\":1998:2077   */\n      tag_125\n      tag_80\n      jump\t// in\n    tag_125:\n        /* \"#utility.yul\":1960:2079   */\n    tag_124:\n        /* \"#utility.yul\":2118:2119   */\n      0x00\n        /* \"#utility.yul\":2143:2196   */\n      tag_126\n        /* \"#utility.yul\":2188:2195   */\n      dup5\n        /* \"#utility.yul\":2179:2185   */\n      dup3\n        /* \"#utility.yul\":2168:2177   */\n      dup6\n        /* \"#utility.yul\":2164:2186   */\n      add\n        /* \"#utility.yul\":2143:2196   */\n      tag_87\n      jump\t// in\n    tag_126:\n        /* \"#utility.yul\":2133:2196   */\n      swap2\n      pop\n        /* \"#utility.yul\":2089:2206   */\n      pop\n        /* \"#utility.yul\":1884:2213   */\n      swap3\n      swap2\n      pop\n      pop\n      jump\t// out\n        /* \"#utility.yul\":2219:2551   */\n    tag_38:\n        /* \"#utility.yul\":2340:2344   */\n      0x00\n        /* \"#utility.yul\":2378:2380   */\n      0x40\n        /* \"#utility.yul\":2367:2376   */\n      dup3\n        /* \"#utility.yul\":2363:2381   */\n      add\n        /* \"#utility.yul\":2355:2381   */\n      swap1\n      pop\n        /* \"#utility.yul\":2391:2462   */\n      tag_128\n        /* \"#utility.yul\":2459:2460   */\n      0x00\n        /* \"#utility.yul\":2448:2457   */\n      dup4\n        /* \"#utility.yul\":2444:2461   */\n      add\n        /* \"#utility.yul\":2435:2441   */\n      dup6\n        /* \"#utility.yul\":2391:2462   */\n      tag_78\n      jump\t// in\n    tag_128:\n        /* \"#utility.yul\":2472:2544   */\n      tag_129\n        /* \"#utility.yul\":2540:2542   */\n      0x20\n        /* \"#utility.yul\":2529:2538   */\n      dup4\n        /* \"#utility.yul\":2525:2543   */\n      add\n        /* \"#utility.yul\":2516:2522   */\n      dup5\n        /* \"#utility.yul\":2472:2544   */\n      tag_78\n      jump\t// in\n    tag_129:\n        /* \"#utility.yul\":2219:2551   */\n      swap4\n      swap3\n      pop\n      pop\n      pop\n      jump\t// out\n        /* \"#utility.yul\":2557:2642   */\n    tag_88:\n        /* \"#utility.yul\":2602:2609   */\n      0x00\n        /* \"#utility.yul\":2631:2636   */\n      dup2\n        /* \"#utility.yul\":2620:2636   */\n      swap1\n      pop\n        /* \"#utility.yul\":2557:2642   */\n      swap2\n      swap1\n      pop\n      jump\t// out\n        /* \"#utility.yul\":2648:2708   */\n    tag_89:\n        /* \"#utility.yul\":2676:2679   */\n      0x00\n        /* \"#utility.yul\":2697:2702   */\n      dup2\n        /* \"#utility.yul\":2690:2702   */\n      swap1\n      pop\n        /* \"#utility.yul\":2648:2708   */\n      swap2\n      swap1\n      pop\n      jump\t// out\n        /* \"#utility.yul\":2714:2872   */\n    tag_90:\n        /* \"#utility.yul\":2772:2781   */\n      0x00\n        /* \"#utility.yul\":2805:2866   */\n      tag_133\n        /* \"#utility.yul\":2823:2865   */\n      tag_134\n        /* \"#utility.yul\":2832:2864   */\n      tag_135\n        /* \"#utility.yul\":2858:2863   */\n      dup5\n        /* \"#utility.yul\":2832:2864   */\n      tag_88\n      jump\t// in\n    tag_135:\n        /* \"#utility.yul\":2823:2865   */\n      tag_89\n      jump\t// in\n    tag_134:\n        /* \"#utility.yul\":2805:2866   */\n      tag_77\n      jump\t// in\n    tag_133:\n        /* \"#utility.yul\":2792:2866   */\n      swap1\n      pop\n        /* \"#utility.yul\":2714:2872   */\n      swap2\n      swap1\n      pop\n      jump\t// out\n        /* \"#utility.yul\":2878:3025   */\n    tag_91:\n        /* \"#utility.yul\":2973:3018   */\n      tag_137\n        /* \"#utility.yul\":3012:3017   */\n      dup2\n        /* \"#utility.yul\":2973:3018   */\n      tag_90\n      jump\t// in\n    tag_137:\n        /* \"#utility.yul\":2968:2971   */\n      dup3\n        /* \"#utility.yul\":2961:3019   */\n      mstore\n        /* \"#utility.yul\":2878:3025   */\n      pop\n      pop\n      jump\t// out\n        /* \"#utility.yul\":3031:3395   */\n    tag_44:\n        /* \"#utility.yul\":3168:3172   */\n      0x00\n        /* \"#utility.yul\":3206:3208   */\n      0x40\n        /* \"#utility.yul\":3195:3204   */\n      dup3\n        /* \"#utility.yul\":3191:3209   */\n      add\n        /* \"#utility.yul\":3183:3209   */\n      swap1\n      pop\n        /* \"#utility.yul\":3219:3298   */\n      tag_139\n        /* \"#utility.yul\":3295:3296   */\n      0x00\n        /* \"#utility.yul\":3284:3293   */\n      dup4\n        /* \"#utility.yul\":3280:3297   */\n      add\n        /* \"#utility.yul\":3271:3277   */\n      dup6\n        /* \"#utility.yul\":3219:3298   */\n      tag_91\n      jump\t// in\n    tag_139:\n        /* \"#utility.yul\":3308:3388   */\n      tag_140\n        /* \"#utility.yul\":3384:3386   */\n      0x20\n        /* \"#utility.yul\":3373:3382   */\n      dup4\n        /* \"#utility.yul\":3369:3387   */\n      add\n        /* \"#utility.yul\":3360:3366   */\n      dup5\n        /* \"#utility.yul\":3308:3388   */\n      tag_91\n      jump\t// in\n    tag_140:\n        /* \"#utility.yul\":3031:3395   */\n      swap4\n      swap3\n      pop\n      pop\n      pop\n      jump\t// out\n        /* \"#utility.yul\":3401:3581   */\n    tag_92:\n        /* \"#utility.yul\":3449:3526   */\n      0x4e487b7100000000000000000000000000000000000000000000000000000000\n        /* \"#utility.yul\":3446:3447   */\n      0x00\n        /* \"#utility.yul\":3439:3527   */\n      mstore\n        /* \"#utility.yul\":3546:3550   */\n      0x11\n        /* \"#utility.yul\":3543:3544   */\n      0x04\n        /* \"#utility.yul\":3536:3551   */\n      mstore\n        /* \"#utility.yul\":3570:3574   */\n      0x24\n        /* \"#utility.yul\":3567:3568   */\n      0x00\n        /* \"#utility.yul\":3560:3575   */\n      revert\n        /* \"#utility.yul\":3587:3781   */\n    tag_48:\n        /* \"#utility.yul\":3627:3631   */\n      0x00\n        /* \"#utility.yul\":3647:3667   */\n      tag_143\n        /* \"#utility.yul\":3665:3666   */\n      dup3\n        /* \"#utility.yul\":3647:3667   */\n      tag_77\n      jump\t// in\n    tag_143:\n        /* \"#utility.yul\":3642:3667   */\n      swap2\n      pop\n        /* \"#utility.yul\":3681:3701   */\n      tag_144\n        /* \"#utility.yul\":3699:3700   */\n      dup4\n        /* \"#utility.yul\":3681:3701   */\n      tag_77\n      jump\t// in\n    tag_144:\n        /* \"#utility.yul\":3676:3701   */\n      swap3\n      pop\n        /* \"#utility.yul\":3725:3726   */\n      dup3\n        /* \"#utility.yul\":3722:3723   */\n      dup3\n        /* \"#utility.yul\":3718:3727   */\n      sub\n        /* \"#utility.yul\":3710:3727   */\n      swap1\n      pop\n        /* \"#utility.yul\":3749:3750   */\n      dup2\n        /* \"#utility.yul\":3743:3747   */\n      dup2\n        /* \"#utility.yul\":3740:3751   */\n      gt\n        /* \"#utility.yul\":3737:3774   */\n      iszero\n      tag_145\n      jumpi\n        /* \"#utility.yul\":3754:3772   */\n      tag_146\n      tag_92\n      jump\t// in\n    tag_146:\n        /* \"#utility.yul\":3737:3774   */\n    tag_145:\n        /* \"#utility.yul\":3587:3781   */\n      swap3\n      swap2\n      pop\n      pop\n      jump\t// out\n        /* \"#utility.yul\":3787:4020   */\n    tag_50:\n        /* \"#utility.yul\":3826:3829   */\n      0x00\n        /* \"#utility.yul\":3849:3873   */\n      tag_148\n        /* \"#utility.yul\":3867:3872   */\n      dup3\n        /* \"#utility.yul\":3849:3873   */\n      tag_77\n      jump\t// in\n    tag_148:\n        /* \"#utility.yul\":3840:3873   */\n      swap2\n      pop\n        /* \"#utility.yul\":3895:3961   */\n      0xffffffffffffffffffffffffffffffffffffffffffffffffffffffffffffffff\n        /* \"#utility.yul\":3888:3893   */\n      dup3\n        /* \"#utility.yul\":3885:3962   */\n      sub\n        /* \"#utility.yul\":3882:3985   */\n      tag_149\n      jumpi\n        /* \"#utility.yul\":3965:3983   */\n      tag_150\n      tag_92\n      jump\t// in\n    tag_150:\n        /* \"#utility.yul\":3882:3985   */\n    tag_149:\n        /* \"#utility.yul\":4012:4013   */\n      0x01\n        /* \"#utility.yul\":4005:4010   */\n      dup3\n        /* \"#utility.yul\":4001:4014   */\n      add\n        /* \"#utility.yul\":3994:4014   */\n      swap1\n      pop\n        /* \"#utility.yul\":3787:4020   */\n      swap2\n      swap1\n      pop\n      jump\t// out\n        /* \"#utility.yul\":4026:4173   */\n    tag_93:\n        /* \"#utility.yul\":4127:4138   */\n      0x00\n        /* \"#utility.yul\":4164:4167   */\n      dup2\n        /* \"#utility.yul\":4149:4167   */\n      swap1\n      pop\n        /* \"#utility.yul\":4026:4173   */\n      swap3\n      swap2\n      pop\n      pop\n      jump\t// out\n        /* \"#utility.yul\":4179:4293   */\n    tag_94:\n      pop\n      jump\t// out\n        /* \"#utility.yul\":4299:4697   */\n    tag_95:\n        /* \"#utility.yul\":4458:4461   */\n      0x00\n        /* \"#utility.yul\":4479:4562   */\n      tag_154\n        /* \"#utility.yul\":4560:4561   */\n      0x00\n        /* \"#utility.yul\":4555:4558   */\n      dup4\n        /* \"#utility.yul\":4479:4562   */\n      tag_93\n      jump\t// in\n    tag_154:\n        /* \"#utility.yul\":4472:4562   */\n      swap2\n      pop\n        /* \"#utility.yul\":4571:4664   */\n      tag_155\n        /* \"#utility.yul\":4660:4663   */\n      dup3\n        /* \"#utility.yul\":4571:4664   */\n      tag_94\n      jump\t// in\n    tag_155:\n        /* \"#utility.yul\":4689:4690   */\n      0x00\n        /* \"#utility.yul\":4684:4687   */\n      dup3\n        /* \"#utility.yul\":4680:4691   */\n      add\n        /* \"#utility.yul\":4673:4691   */\n      swap1\n      pop\n        /* \"#utility.yul\":4299:4697   */\n      swap2\n      swap1\n      pop\n      jump\t// out\n        /* \"#utility.yul\":4703:5082   */\n    tag_52:\n        /* \"#utility.yul\":4887:4890   */\n      0x00\n        /* \"#utility.yul\":4909:5056   */\n      tag_157\n        /* \"#utility.yul\":5052:5055   */\n      dup3\n        /* \"#utility.yul\":4909:5056   */\n      tag_95\n      jump\t// in\n    tag_157:\n        /* \"#utility.yul\":4902:5056   */\n      swap2\n      pop\n        /* \"#utility.yul\":5073:5076   */\n      dup2\n        /* \"#utility.yul\":5066:5076   */\n      swap1\n      pop\n        /* \"#utility.yul\":4703:5082   */\n      swap2\n      swap1\n      pop\n      jump\t// out\n        /* \"#utility.yul\":5088:5206   */\n    tag_96:\n        /* \"#utility.yul\":5175:5199   */\n      tag_159\n        /* \"#utility.yul\":5193:5198   */\n      dup2\n        /* \"#utility.yul\":5175:5199   */\n      tag_85\n      jump\t// in\n    tag_159:\n        /* \"#utility.yul\":5170:5173   */\n      dup3\n        /* \"#utility.yul\":5163:5200   */\n      mstore\n        /* \"#utility.yul\":5088:5206   */\n      pop\n      pop\n      jump\t// out\n        /* \"#utility.yul\":5212:5544   */\n    tag_58:\n        /* \"#utility.yul\":5333:5337   */\n      0x00\n        /* \"#utility.yul\":5371:5373   */\n      0x40\n        /* \"#utility.yul\":5360:5369   */\n      dup3\n        /* \"#utility.yul\":5356:5374   */\n      add\n        /* \"#utility.yul\":5348:5374   */\n      swap1\n      pop\n        /* \"#utility.yul\":5384:5455   */\n      tag_161\n        /* \"#utility.yul\":5452:5453   */\n      0x00\n        /* \"#utility.yul\":5441:5450   */\n      dup4\n        /* \"#utility.yul\":5437:5454   */\n      add\n        /* \"#utility.yul\":5428:5434   */\n      dup6\n        /* \"#utility.yul\":5384:5455   */\n      tag_96\n      jump\t// in\n    tag_161:\n        /* \"#utility.yul\":5465:5537   */\n      tag_162\n        /* \"#utility.yul\":5533:5535   */\n      0x20\n        /* \"#utility.yul\":5522:5531   */\n      dup4\n        /* \"#utility.yul\":5518:5536   */\n      add\n        /* \"#utility.yul\":5509:5515   */\n      dup5\n        /* \"#utility.yul\":5465:5537   */\n      tag_78\n      jump\t// in\n    tag_162:\n        /* \"#utility.yul\":5212:5544   */\n      swap4\n      swap3\n      pop\n      pop\n      pop\n      jump\t// out\n        /* \"#utility.yul\":5550:5741   */\n    tag_62:\n        /* \"#utility.yul\":5590:5593   */\n      0x00\n        /* \"#utility.yul\":5609:5629   */\n      tag_164\n        /* \"#utility.yul\":5627:5628   */\n      dup3\n        /* \"#utility.yul\":5609:5629   */\n      tag_77\n      jump\t// in\n    tag_164:\n        /* \"#utility.yul\":5604:5629   */\n      swap2\n      pop\n        /* \"#utility.yul\":5643:5663   */\n      tag_165\n        /* \"#utility.yul\":5661:5662   */\n      dup4\n        /* \"#utility.yul\":5643:5663   */\n      tag_77\n      jump\t// in\n    tag_165:\n        /* \"#utility.yul\":5638:5663   */\n      swap3\n      pop\n        /* \"#utility.yul\":5686:5687   */\n      dup3\n        /* \"#utility.yul\":5683:5684   */\n      dup3\n        /* \"#utility.yul\":5679:5688   */\n      add\n        /* \"#utility.yul\":5672:5688   */\n      swap1\n      pop\n        /* \"#utility.yul\":5707:5710   */\n      dup1\n        /* \"#utility.yul\":5704:5705   */\n      dup3\n        /* \"#utility.yul\":5701:5711   */\n      gt\n        /* \"#utility.yul\":5698:5734   */\n      iszero\n      tag_166\n      jumpi\n        /* \"#utility.yul\":5714:5732   */\n      tag_167\n      tag_92\n      jump\t// in\n    tag_167:\n        /* \"#utility.yul\":5698:5734   */\n    tag_166:\n        /* \"#utility.yul\":5550:5741   */\n      swap3\n      swap2\n      pop\n      pop\n      jump\t// out\n\n    auxdata: 0xa2646970667358221220c6418db936247181e008a7fa94ba49a0eeb7356e94e63680a76bda6f709a567564736f6c634300081e0033\n}\n",
				"bytecode": {
					"linkReferences": {},
					"object": "60c060405234801561000f575f5ffd5b50604051610b41380380610b418339818101604052810190610031919061007f565b81608081815250508060a0818152505050506100bd565b5f5ffd5b5f819050919050565b61005e8161004c565b8114610068575f5ffd5b50565b5f8151905061007981610055565b92915050565b5f5f6040838503121561009557610094610048565b5b5f6100a28582860161006b565b92505060206100b38582860161006b565b9150509250929050565b60805160a051610a476100fa5f395f818161014e01528181610177015261066401525f818161047f015281816104be01526106400152610a475ff3fe608060405260043610610054575f3560e01c806328657aa5146100585780632e1a7d4d14610082578063d0e30db0146100aa578063ecbea24d146100b4578063f848d541146100de578063f8b2cb4f14610108575b5f5ffd5b348015610063575f5ffd5b5061006c610144565b6040516100799190610739565b60405180910390f35b34801561008d575f5ffd5b506100a860048036038101906100a39190610780565b61014b565b005b6100b261047c565b005b3480156100bf575f5ffd5b506100c861063e565b6040516100d59190610739565b60405180910390f35b3480156100e9575f5ffd5b506100f2610662565b6040516100ff9190610739565b60405180910390f35b348015610113575f5ffd5b5061012e60048036038101906101299190610805565b610686565b60405161013b9190610739565b60405180910390f35b5f47905090565b807f00000000000000000000000000000000000000000000000000000000000000008111156101d357807f00000000000000000000000000000000000000000000000000000000000000006040517f9c8983d90000000000000000000000000000000000000000000000000000000081526004016101ca929190610830565b60405180910390fd5b60035f9054906101000a900460ff1615610219576040517fd0f87aea00000000000000000000000000000000000000000000000000000000815260040160405180910390fd5b600160035f6101000a81548160ff0219169083151502179055505f8203610279575f5f6040517fcf479181000000000000000000000000000000000000000000000000000000008152600401610270929190610899565b60405180910390fd5b5f5f5f3373ffffffffffffffffffffffffffffffffffffffff1673ffffffffffffffffffffffffffffffffffffffff1681526020019081526020015f20549050828110156103005780836040517fcf4791810000000000000000000000000000000000000000000000000000000081526004016102f7929190610830565b60405180910390fd5b828161030c91906108ed565b5f5f3373ffffffffffffffffffffffffffffffffffffffff1673ffffffffffffffffffffffffffffffffffffffff1681526020019081526020015f208190555060025f81548092919061035e90610920565b91905055505f3373ffffffffffffffffffffffffffffffffffffffff168460405161038890610994565b5f6040518083038185875af1925050503d805f81146103c2576040519150601f19603f3d011682016040523d82523d5f602084013e6103c7565b606091505b505090508061040f5733846040517f1c43b9760000000000000000000000000000000000000000000000000000000081526004016104069291906109b7565b60405180910390fd5b3373ffffffffffffffffffffffffffffffffffffffff167f7fcf532c15f0a6db0bd6d0e038bea71d30d808c7d98cb3bf7268a95bf5081b65856040516104559190610739565b60405180910390a250505f60035f6101000a81548160ff0219169083151502179055505050565b347f000000000000000000000000000000000000000000000000000000000000000081476104aa91906109de565b111561051a5780476104bc91906109de565b7f00000000000000000000000000000000000000000000000000000000000000006040517f4274ef77000000000000000000000000000000000000000000000000000000008152600401610511929190610830565b60405180910390fd5b60035f9054906101000a900460ff1615610560576040517fd0f87aea00000000000000000000000000000000000000000000000000000000815260040160405180910390fd5b600160035f6101000a81548160ff0219169083151502179055505f34036105b3576040517f56316e8700000000000000000000000000000000000000000000000000000000815260040160405180910390fd5b6105bd33346106cb565b60015f8154809291906105cf90610920565b91905055503373ffffffffffffffffffffffffffffffffffffffff167fe1fffcc4923d04b559f4d29a8bfc6cda04eb5b0d3c460751c2402c5c5cc9109c3460405161061a9190610739565b60405180910390a25f60035f6101000a81548160ff02191690831515021790555050565b7f000000000000000000000000000000000000000000000000000000000000000081565b7f000000000000000000000000000000000000000000000000000000000000000081565b5f5f5f8373ffffffffffffffffffffffffffffffffffffffff1673ffffffffffffffffffffffffffffffffffffffff1681526020019081526020015f20549050919050565b805f5f8473ffffffffffffffffffffffffffffffffffffffff1673ffffffffffffffffffffffffffffffffffffffff1681526020019081526020015f205f82825461071691906109de565b925050819055505050565b5f819050919050565b61073381610721565b82525050565b5f60208201905061074c5f83018461072a565b92915050565b5f5ffd5b61075f81610721565b8114610769575f5ffd5b50565b5f8135905061077a81610756565b92915050565b5f6020828403121561079557610794610752565b5b5f6107a28482850161076c565b91505092915050565b5f73ffffffffffffffffffffffffffffffffffffffff82169050919050565b5f6107d4826107ab565b9050919050565b6107e4816107ca565b81146107ee575f5ffd5b50565b5f813590506107ff816107db565b92915050565b5f6020828403121561081a57610819610752565b5b5f610827848285016107f1565b91505092915050565b5f6040820190506108435f83018561072a565b610850602083018461072a565b9392505050565b5f819050919050565b5f819050919050565b5f61088361087e61087984610857565b610860565b610721565b9050919050565b61089381610869565b82525050565b5f6040820190506108ac5f83018561088a565b6108b9602083018461088a565b9392505050565b7f4e487b71000000000000000000000000000000000000000000000000000000005f52601160045260245ffd5b5f6108f782610721565b915061090283610721565b925082820390508181111561091a576109196108c0565b5b92915050565b5f61092a82610721565b91507fffffffffffffffffffffffffffffffffffffffffffffffffffffffffffffffff820361095c5761095b6108c0565b5b600182019050919050565b5f81905092915050565b50565b5f61097f5f83610967565b915061098a82610971565b5f82019050919050565b5f61099e82610974565b9150819050919050565b6109b1816107ca565b82525050565b5f6040820190506109ca5f8301856109a8565b6109d7602083018461072a565b9392505050565b5f6109e882610721565b91506109f383610721565b9250828201905080821115610a0b57610a0a6108c0565b5b9291505056fea2646970667358221220c6418db936247181e008a7fa94ba49a0eeb7356e94e63680a76bda6f709a567564736f6c634300081e0033",
					"opcodes": "PUSH1 0xC0 PUSH1 0x40 MSTORE CALLVALUE DUP1 ISZERO PUSH2 0xF JUMPI PUSH0 PUSH0 REVERT JUMPDEST POP PUSH1 0x40 MLOAD PUSH2 0xB41 CODESIZE SUB DUP1 PUSH2 0xB41 DUP4 CODECOPY DUP2 DUP2 ADD PUSH1 0x40 MSTORE DUP2 ADD SWAP1 PUSH2 0x31 SWAP2 SWAP1 PUSH2 0x7F JUMP JUMPDEST DUP2 PUSH1 0x80 DUP2 DUP2 MSTORE POP POP DUP1 PUSH1 0xA0 DUP2 DUP2 MSTORE POP POP POP POP PUSH2 0xBD JUMP JUMPDEST PUSH0 PUSH0 REVERT JUMPDEST PUSH0 DUP2 SWAP1 POP SWAP2 SWAP1 POP JUMP JUMPDEST PUSH2 0x5E DUP2 PUSH2 0x4C JUMP JUMPDEST DUP2 EQ PUSH2 0x68 JUMPI PUSH0 PUSH0 REVERT JUMPDEST POP JUMP JUMPDEST PUSH0 DUP2 MLOAD SWAP1 POP PUSH2 0x79 DUP2 PUSH2 0x55 JUMP JUMPDEST SWAP3 SWAP2 POP POP JUMP JUMPDEST PUSH0 PUSH0 PUSH1 0x40 DUP4 DUP6 SUB SLT ISZERO PUSH2 0x95 JUMPI PUSH2 0x94 PUSH2 0x48 JUMP JUMPDEST JUMPDEST PUSH0 PUSH2 0xA2 DUP6 DUP3 DUP7 ADD PUSH2 0x6B JUMP JUMPDEST SWAP3 POP POP PUSH1 0x20 PUSH2 0xB3 DUP6 DUP3 DUP7 ADD PUSH2 0x6B JUMP JUMPDEST SWAP2 POP POP SWAP3 POP SWAP3 SWAP1 POP JUMP JUMPDEST PUSH1 0x80 MLOAD PUSH1 0xA0 MLOAD PUSH2 0xA47 PUSH2 0xFA PUSH0 CODECOPY PUSH0 DUP2 DUP2 PUSH2 0x14E ADD MSTORE DUP2 DUP2 PUSH2 0x177 ADD MSTORE PUSH2 0x664 ADD MSTORE PUSH0 DUP2 DUP2 PUSH2 0x47F ADD MSTORE DUP2 DUP2 PUSH2 0x4BE ADD MSTORE PUSH2 0x640 ADD MSTORE PUSH2 0xA47 PUSH0 RETURN INVALID PUSH1 0x80 PUSH1 0x40 MSTORE PUSH1 0x4 CALLDATASIZE LT PUSH2 0x54 JUMPI PUSH0 CALLDATALOAD PUSH1 0xE0 SHR DUP1 PUSH4 0x28657AA5 EQ PUSH2 0x58 JUMPI DUP1 PUSH4 0x2E1A7D4D EQ PUSH2 0x82 JUMPI DUP1 PUSH4 0xD0E30DB0 EQ PUSH2 0xAA JUMPI DUP1 PUSH4 0xECBEA24D EQ PUSH2 0xB4 JUMPI DUP1 PUSH4 0xF848D541 EQ PUSH2 0xDE JUMPI DUP1 PUSH4 0xF8B2CB4F EQ PUSH2 0x108 JUMPI JUMPDEST PUSH0 PUSH0 REVERT JUMPDEST CALLVALUE DUP1 ISZERO PUSH2 0x63 JUMPI PUSH0 PUSH0 REVERT JUMPDEST POP PUSH2 0x6C PUSH2 0x144 JUMP JUMPDEST PUSH1 0x40 MLOAD PUSH2 0x79 SWAP2 SWAP1 PUSH2 0x739 JUMP JUMPDEST PUSH1 0x40 MLOAD DUP1 SWAP2 SUB SWAP1 RETURN JUMPDEST CALLVALUE DUP1 ISZERO PUSH2 0x8D JUMPI PUSH0 PUSH0 REVERT JUMPDEST POP PUSH2 0xA8 PUSH1 0x4 DUP1 CALLDATASIZE SUB DUP2 ADD SWAP1 PUSH2 0xA3 SWAP2 SWAP1 PUSH2 0x780 JUMP JUMPDEST PUSH2 0x14B JUMP JUMPDEST STOP JUMPDEST PUSH2 0xB2 PUSH2 0x47C JUMP JUMPDEST STOP JUMPDEST CALLVALUE DUP1 ISZERO PUSH2 0xBF JUMPI PUSH0 PUSH0 REVERT JUMPDEST POP PUSH2 0xC8 PUSH2 0x63E JUMP JUMPDEST PUSH1 0x40 MLOAD PUSH2 0xD5 SWAP2 SWAP1 PUSH2 0x739 JUMP JUMPDEST PUSH1 0x40 MLOAD DUP1 SWAP2 SUB SWAP1 RETURN JUMPDEST CALLVALUE DUP1 ISZERO PUSH2 0xE9 JUMPI PUSH0 PUSH0 REVERT JUMPDEST POP PUSH2 0xF2 PUSH2 0x662 JUMP JUMPDEST PUSH1 0x40 MLOAD PUSH2 0xFF SWAP2 SWAP1 PUSH2 0x739 JUMP JUMPDEST PUSH1 0x40 MLOAD DUP1 SWAP2 SUB SWAP1 RETURN JUMPDEST CALLVALUE DUP1 ISZERO PUSH2 0x113 JUMPI PUSH0 PUSH0 REVERT JUMPDEST POP PUSH2 0x12E PUSH1 0x4 DUP1 CALLDATASIZE SUB DUP2 ADD SWAP1 PUSH2 0x129 SWAP2 SWAP1 PUSH2 0x805 JUMP JUMPDEST PUSH2 0x686 JUMP JUMPDEST PUSH1 0x40 MLOAD PUSH2 0x13B SWAP2 SWAP1 PUSH2 0x739 JUMP JUMPDEST PUSH1 0x40 MLOAD DUP1 SWAP2 SUB SWAP1 RETURN JUMPDEST PUSH0 SELFBALANCE SWAP1 POP SWAP1 JUMP JUMPDEST DUP1 PUSH32 0x0 DUP2 GT ISZERO PUSH2 0x1D3 JUMPI DUP1 PUSH32 0x0 PUSH1 0x40 MLOAD PUSH32 0x9C8983D900000000000000000000000000000000000000000000000000000000 DUP2 MSTORE PUSH1 0x4 ADD PUSH2 0x1CA SWAP3 SWAP2 SWAP1 PUSH2 0x830 JUMP JUMPDEST PUSH1 0x40 MLOAD DUP1 SWAP2 SUB SWAP1 REVERT JUMPDEST PUSH1 0x3 PUSH0 SWAP1 SLOAD SWAP1 PUSH2 0x100 EXP SWAP1 DIV PUSH1 0xFF AND ISZERO PUSH2 0x219 JUMPI PUSH1 0x40 MLOAD PUSH32 0xD0F87AEA00000000000000000000000000000000000000000000000000000000 DUP2 MSTORE PUSH1 0x4 ADD PUSH1 0x40 MLOAD DUP1 SWAP2 SUB SWAP1 REVERT JUMPDEST PUSH1 0x1 PUSH1 0x3 PUSH0 PUSH2 0x100 EXP DUP2 SLOAD DUP2 PUSH1 0xFF MUL NOT AND SWAP1 DUP4 ISZERO ISZERO MUL OR SWAP1 SSTORE POP PUSH0 DUP3 SUB PUSH2 0x279 JUMPI PUSH0 PUSH0 PUSH1 0x40 MLOAD PUSH32 0xCF47918100000000000000000000000000000000000000000000000000000000 DUP2 MSTORE PUSH1 0x4 ADD PUSH2 0x270 SWAP3 SWAP2 SWAP1 PUSH2 0x899 JUMP JUMPDEST PUSH1 0x40 MLOAD DUP1 SWAP2 SUB SWAP1 REVERT JUMPDEST PUSH0 PUSH0 PUSH0 CALLER PUSH20 0xFFFFFFFFFFFFFFFFFFFFFFFFFFFFFFFFFFFFFFFF AND PUSH20 0xFFFFFFFFFFFFFFFFFFFFFFFFFFFFFFFFFFFFFFFF AND DUP2 MSTORE PUSH1 0x20 ADD SWAP1 DUP2 MSTORE PUSH1 0x20 ADD PUSH0 KECCAK256 SLOAD SWAP1 POP DUP3 DUP2 LT ISZERO PUSH2 0x300 JUMPI DUP1 DUP4 PUSH1 0x40 MLOAD PUSH32 0xCF47918100000000000000000000000000000000000000000000000000000000 DUP2 MSTORE PUSH1 0x4 ADD PUSH2 0x2F7 SWAP3 SWAP2 SWAP1 PUSH2 0x830 JUMP JUMPDEST PUSH1 0x40 MLOAD DUP1 SWAP2 SUB SWAP1 REVERT JUMPDEST DUP3 DUP2 PUSH2 0x30C SWAP2 SWAP1 PUSH2 0x8ED JUMP JUMPDEST PUSH0 PUSH0 CALLER PUSH20 0xFFFFFFFFFFFFFFFFFFFFFFFFFFFFFFFFFFFFFFFF AND PUSH20 0xFFFFFFFFFFFFFFFFFFFFFFFFFFFFFFFFFFFFFFFF AND DUP2 MSTORE PUSH1 0x20 ADD SWAP1 DUP2 MSTORE PUSH1 0x20 ADD PUSH0 KECCAK256 DUP2 SWAP1 SSTORE POP PUSH1 0x2 PUSH0 DUP2 SLOAD DUP1 SWAP3 SWAP2 SWAP1 PUSH2 0x35E SWAP1 PUSH2 0x920 JUMP JUMPDEST SWAP2 SWAP1 POP SSTORE POP PUSH0 CALLER PUSH20 0xFFFFFFFFFFFFFFFFFFFFFFFFFFFFFFFFFFFFFFFF AND DUP5 PUSH1 0x40 MLOAD PUSH2 0x388 SWAP1 PUSH2 0x994 JUMP JUMPDEST PUSH0 PUSH1 0x40 MLOAD DUP1 DUP4 SUB DUP2 DUP6 DUP8 GAS CALL SWAP3 POP POP POP RETURNDATASIZE DUP1 PUSH0 DUP2 EQ PUSH2 0x3C2 JUMPI PUSH1 0x40 MLOAD SWAP2 POP PUSH1 0x1F NOT PUSH1 0x3F RETURNDATASIZE ADD AND DUP3 ADD PUSH1 0x40 MSTORE RETURNDATASIZE DUP3 MSTORE RETURNDATASIZE PUSH0 PUSH1 0x20 DUP5 ADD RETURNDATACOPY PUSH2 0x3C7 JUMP JUMPDEST PUSH1 0x60 SWAP2 POP JUMPDEST POP POP SWAP1 POP DUP1 PUSH2 0x40F JUMPI CALLER DUP5 PUSH1 0x40 MLOAD PUSH32 0x1C43B97600000000000000000000000000000000000000000000000000000000 DUP2 MSTORE PUSH1 0x4 ADD PUSH2 0x406 SWAP3 SWAP2 SWAP1 PUSH2 0x9B7 JUMP JUMPDEST PUSH1 0x40 MLOAD DUP1 SWAP2 SUB SWAP1 REVERT JUMPDEST CALLER PUSH20 0xFFFFFFFFFFFFFFFFFFFFFFFFFFFFFFFFFFFFFFFF AND PUSH32 0x7FCF532C15F0A6DB0BD6D0E038BEA71D30D808C7D98CB3BF7268A95BF5081B65 DUP6 PUSH1 0x40 MLOAD PUSH2 0x455 SWAP2 SWAP1 PUSH2 0x739 JUMP JUMPDEST PUSH1 0x40 MLOAD DUP1 SWAP2 SUB SWAP1 LOG2 POP POP PUSH0 PUSH1 0x3 PUSH0 PUSH2 0x100 EXP DUP2 SLOAD DUP2 PUSH1 0xFF MUL NOT AND SWAP1 DUP4 ISZERO ISZERO MUL OR SWAP1 SSTORE POP POP POP JUMP JUMPDEST CALLVALUE PUSH32 0x0 DUP2 SELFBALANCE PUSH2 0x4AA SWAP2 SWAP1 PUSH2 0x9DE JUMP JUMPDEST GT ISZERO PUSH2 0x51A JUMPI DUP1 SELFBALANCE PUSH2 0x4BC SWAP2 SWAP1 PUSH2 0x9DE JUMP JUMPDEST PUSH32 0x0 PUSH1 0x40 MLOAD PUSH32 0x4274EF7700000000000000000000000000000000000000000000000000000000 DUP2 MSTORE PUSH1 0x4 ADD PUSH2 0x511 SWAP3 SWAP2 SWAP1 PUSH2 0x830 JUMP JUMPDEST PUSH1 0x40 MLOAD DUP1 SWAP2 SUB SWAP1 REVERT JUMPDEST PUSH1 0x3 PUSH0 SWAP1 SLOAD SWAP1 PUSH2 0x100 EXP SWAP1 DIV PUSH1 0xFF AND ISZERO PUSH2 0x560 JUMPI PUSH1 0x40 MLOAD PUSH32 0xD0F87AEA00000000000000000000000000000000000000000000000000000000 DUP2 MSTORE PUSH1 0x4 ADD PUSH1 0x40 MLOAD DUP1 SWAP2 SUB SWAP1 REVERT JUMPDEST PUSH1 0x1 PUSH1 0x3 PUSH0 PUSH2 0x100 EXP DUP2 SLOAD DUP2 PUSH1 0xFF MUL NOT AND SWAP1 DUP4 ISZERO ISZERO MUL OR SWAP1 SSTORE POP PUSH0 CALLVALUE SUB PUSH2 0x5B3 JUMPI PUSH1 0x40 MLOAD PUSH32 0x56316E8700000000000000000000000000000000000000000000000000000000 DUP2 MSTORE PUSH1 0x4 ADD PUSH1 0x40 MLOAD DUP1 SWAP2 SUB SWAP1 REVERT JUMPDEST PUSH2 0x5BD CALLER CALLVALUE PUSH2 0x6CB JUMP JUMPDEST PUSH1 0x1 PUSH0 DUP2 SLOAD DUP1 SWAP3 SWAP2 SWAP1 PUSH2 0x5CF SWAP1 PUSH2 0x920 JUMP JUMPDEST SWAP2 SWAP1 POP SSTORE POP CALLER PUSH20 0xFFFFFFFFFFFFFFFFFFFFFFFFFFFFFFFFFFFFFFFF AND PUSH32 0xE1FFFCC4923D04B559F4D29A8BFC6CDA04EB5B0D3C460751C2402C5C5CC9109C CALLVALUE PUSH1 0x40 MLOAD PUSH2 0x61A SWAP2 SWAP1 PUSH2 0x739 JUMP JUMPDEST PUSH1 0x40 MLOAD DUP1 SWAP2 SUB SWAP1 LOG2 PUSH0 PUSH1 0x3 PUSH0 PUSH2 0x100 EXP DUP2 SLOAD DUP2 PUSH1 0xFF MUL NOT AND SWAP1 DUP4 ISZERO ISZERO MUL OR SWAP1 SSTORE POP POP JUMP JUMPDEST PUSH32 0x0 DUP2 JUMP JUMPDEST PUSH32 0x0 DUP2 JUMP JUMPDEST PUSH0 PUSH0 PUSH0 DUP4 PUSH20 0xFFFFFFFFFFFFFFFFFFFFFFFFFFFFFFFFFFFFFFFF AND PUSH20 0xFFFFFFFFFFFFFFFFFFFFFFFFFFFFFFFFFFFFFFFF AND DUP2 MSTORE PUSH1 0x20 ADD SWAP1 DUP2 MSTORE PUSH1 0x20 ADD PUSH0 KECCAK256 SLOAD SWAP1 POP SWAP2 SWAP1 POP JUMP JUMPDEST DUP1 PUSH0 PUSH0 DUP5 PUSH20 0xFFFFFFFFFFFFFFFFFFFFFFFFFFFFFFFFFFFFFFFF AND PUSH20 0xFFFFFFFFFFFFFFFFFFFFFFFFFFFFFFFFFFFFFFFF AND DUP2 MSTORE PUSH1 0x20 ADD SWAP1 DUP2 MSTORE PUSH1 0x20 ADD PUSH0 KECCAK256 PUSH0 DUP3 DUP3 SLOAD PUSH2 0x716 SWAP2 SWAP1 PUSH2 0x9DE JUMP JUMPDEST SWAP3 POP POP DUP2 SWAP1 SSTORE POP POP POP JUMP JUMPDEST PUSH0 DUP2 SWAP1 POP SWAP2 SWAP1 POP JUMP JUMPDEST PUSH2 0x733 DUP2 PUSH2 0x721 JUMP JUMPDEST DUP3 MSTORE POP POP JUMP JUMPDEST PUSH0 PUSH1 0x20 DUP3 ADD SWAP1 POP PUSH2 0x74C PUSH0 DUP4 ADD DUP5 PUSH2 0x72A JUMP JUMPDEST SWAP3 SWAP2 POP POP JUMP JUMPDEST PUSH0 PUSH0 REVERT JUMPDEST PUSH2 0x75F DUP2 PUSH2 0x721 JUMP JUMPDEST DUP2 EQ PUSH2 0x769 JUMPI PUSH0 PUSH0 REVERT JUMPDEST POP JUMP JUMPDEST PUSH0 DUP2 CALLDATALOAD SWAP1 POP PUSH2 0x77A DUP2 PUSH2 0x756 JUMP JUMPDEST SWAP3 SWAP2 POP POP JUMP JUMPDEST PUSH0 PUSH1 0x20 DUP3 DUP5 SUB SLT ISZERO PUSH2 0x795 JUMPI PUSH2 0x794 PUSH2 0x752 JUMP JUMPDEST JUMPDEST PUSH0 PUSH2 0x7A2 DUP5 DUP3 DUP6 ADD PUSH2 0x76C JUMP JUMPDEST SWAP2 POP POP SWAP3 SWAP2 POP POP JUMP JUMPDEST PUSH0 PUSH20 0xFFFFFFFFFFFFFFFFFFFFFFFFFFFFFFFFFFFFFFFF DUP3 AND SWAP1 POP SWAP2 SWAP1 POP JUMP JUMPDEST PUSH0 PUSH2 0x7D4 DUP3 PUSH2 0x7AB JUMP JUMPDEST SWAP1 POP SWAP2 SWAP1 POP JUMP JUMPDEST PUSH2 0x7E4 DUP2 PUSH2 0x7CA JUMP JUMPDEST DUP2 EQ PUSH2 0x7EE JUMPI PUSH0 PUSH0 REVERT JUMPDEST POP JUMP JUMPDEST PUSH0 DUP2 CALLDATALOAD SWAP1 POP PUSH2 0x7FF DUP2 PUSH2 0x7DB JUMP JUMPDEST SWAP3 SWAP2 POP POP JUMP JUMPDEST PUSH0 PUSH1 0x20 DUP3 DUP5 SUB SLT ISZERO PUSH2 0x81A JUMPI PUSH2 0x819 PUSH2 0x752 JUMP JUMPDEST JUMPDEST PUSH0 PUSH2 0x827 DUP5 DUP3 DUP6 ADD PUSH2 0x7F1 JUMP JUMPDEST SWAP2 POP POP SWAP3 SWAP2 POP POP JUMP JUMPDEST PUSH0 PUSH1 0x40 DUP3 ADD SWAP1 POP PUSH2 0x843 PUSH0 DUP4 ADD DUP6 PUSH2 0x72A JUMP JUMPDEST PUSH2 0x850 PUSH1 0x20 DUP4 ADD DUP5 PUSH2 0x72A JUMP JUMPDEST SWAP4 SWAP3 POP POP POP JUMP JUMPDEST PUSH0 DUP2 SWAP1 POP SWAP2 SWAP1 POP JUMP JUMPDEST PUSH0 DUP2 SWAP1 POP SWAP2 SWAP1 POP JUMP JUMPDEST PUSH0 PUSH2 0x883 PUSH2 0x87E PUSH2 0x879 DUP5 PUSH2 0x857 JUMP JUMPDEST PUSH2 0x860 JUMP JUMPDEST PUSH2 0x721 JUMP JUMPDEST SWAP1 POP SWAP2 SWAP1 POP JUMP JUMPDEST PUSH2 0x893 DUP2 PUSH2 0x869 JUMP JUMPDEST DUP3 MSTORE POP POP JUMP JUMPDEST PUSH0 PUSH1 0x40 DUP3 ADD SWAP1 POP PUSH2 0x8AC PUSH0 DUP4 ADD DUP6 PUSH2 0x88A JUMP JUMPDEST PUSH2 0x8B9 PUSH1 0x20 DUP4 ADD DUP5 PUSH2 0x88A JUMP JUMPDEST SWAP4 SWAP3 POP POP POP JUMP JUMPDEST PUSH32 0x4E487B7100000000000000000000000000000000000000000000000000000000 PUSH0 MSTORE PUSH1 0x11 PUSH1 0x4 MSTORE PUSH1 0x24 PUSH0 REVERT JUMPDEST PUSH0 PUSH2 0x8F7 DUP3 PUSH2 0x721 JUMP JUMPDEST SWAP2 POP PUSH2 0x902 DUP4 PUSH2 0x721 JUMP JUMPDEST SWAP3 POP DUP3 DUP3 SUB SWAP1 POP DUP2 DUP2 GT ISZERO PUSH2 0x91A JUMPI PUSH2 0x919 PUSH2 0x8C0 JUMP JUMPDEST JUMPDEST SWAP3 SWAP2 POP POP JUMP JUMPDEST PUSH0 PUSH2 0x92A DUP3 PUSH2 0x721 JUMP JUMPDEST SWAP2 POP PUSH32 0xFFFFFFFFFFFFFFFFFFFFFFFFFFFFFFFFFFFFFFFFFFFFFFFFFFFFFFFFFFFFFFFF DUP3 SUB PUSH2 0x95C JUMPI PUSH2 0x95B PUSH2 0x8C0 JUMP JUMPDEST JUMPDEST PUSH1 0x1 DUP3 ADD SWAP1 POP SWAP2 SWAP1 POP JUMP JUMPDEST PUSH0 DUP2 SWAP1 POP SWAP3 SWAP2 POP POP JUMP JUMPDEST POP JUMP JUMPDEST PUSH0 PUSH2 0x97F PUSH0 DUP4 PUSH2 0x967 JUMP JUMPDEST SWAP2 POP PUSH2 0x98A DUP3 PUSH2 0x971 JUMP JUMPDEST PUSH0 DUP3 ADD SWAP1 POP SWAP2 SWAP1 POP JUMP JUMPDEST PUSH0 PUSH2 0x99E DUP3 PUSH2 0x974 JUMP JUMPDEST SWAP2 POP DUP2 SWAP1 POP SWAP2 SWAP1 POP JUMP JUMPDEST PUSH2 0x9B1 DUP2 PUSH2 0x7CA JUMP JUMPDEST DUP3 MSTORE POP POP JUMP JUMPDEST PUSH0 PUSH1 0x40 DUP3 ADD SWAP1 POP PUSH2 0x9CA PUSH0 DUP4 ADD DUP6 PUSH2 0x9A8 JUMP JUMPDEST PUSH2 0x9D7 PUSH1 0x20 DUP4 ADD DUP5 PUSH2 0x72A JUMP JUMPDEST SWAP4 SWAP3 POP POP POP JUMP JUMPDEST PUSH0 PUSH2 0x9E8 DUP3 PUSH2 0x721 JUMP JUMPDEST SWAP2 POP PUSH2 0x9F3 DUP4 PUSH2 0x721 JUMP JUMPDEST SWAP3 POP DUP3 DUP3 ADD SWAP1 POP DUP1 DUP3 GT ISZERO PUSH2 0xA0B JUMPI PUSH2 0xA0A PUSH2 0x8C0 JUMP JUMPDEST JUMPDEST SWAP3 SWAP2 POP POP JUMP INVALID LOG2 PUSH5 0x6970667358 0x22 SLT KECCAK256 0xC6 COINBASE DUP14 0xB9 CALLDATASIZE 0x24 PUSH18 0x81E008A7FA94BA49A0EEB7356E94E63680A7 PUSH12 0xDA6F709A567564736F6C6343 STOP ADDMOD 0x1E STOP CALLER "
				},
				"gasEstimates": {
					"creation": {
						"codeDepositCost": "526200",
						"executionCost": "infinite",
						"totalCost": "infinite"
					},
					"external": {
						"bankBalance()": "312",
						"bankCap()": "infinite",
						"deposit()": "infinite",
						"getBalance(address)": "2916",
						"withdraw(uint256)": "infinite",
						"withdrawLimit()": "infinite"
					},
					"internal": {
						"_addToVault(address,uint256)": "infinite"
					}
				},
				"methodIdentifiers": {
					"bankBalance()": "28657aa5",
					"bankCap()": "ecbea24d",
					"deposit()": "d0e30db0",
					"getBalance(address)": "f8b2cb4f",
					"withdraw(uint256)": "2e1a7d4d",
					"withdrawLimit()": "f848d541"
				}
			},
			"storageLayout": {
				"storage": [
					{
						"astId": 13,
						"contract": "contracts/KipuBank.sol:KipuBank",
						"label": "vaults",
						"offset": 0,
						"slot": "0",
						"type": "t_mapping(t_address,t_uint256)"
					},
					{
						"astId": 16,
						"contract": "contracts/KipuBank.sol:KipuBank",
						"label": "totalDeposits",
						"offset": 0,
						"slot": "1",
						"type": "t_uint256"
					},
					{
						"astId": 19,
						"contract": "contracts/KipuBank.sol:KipuBank",
						"label": "totalWithdraws",
						"offset": 0,
						"slot": "2",
						"type": "t_uint256"
					},
					{
						"astId": 22,
						"contract": "contracts/KipuBank.sol:KipuBank",
						"label": "locked",
						"offset": 0,
						"slot": "3",
						"type": "t_bool"
					}
				],
				"types": {
					"t_address": {
						"encoding": "inplace",
						"label": "address",
						"numberOfBytes": "20"
					},
					"t_bool": {
						"encoding": "inplace",
						"label": "bool",
						"numberOfBytes": "1"
					},
					"t_mapping(t_address,t_uint256)": {
						"encoding": "mapping",
						"key": "t_address",
						"label": "mapping(address => uint256)",
						"numberOfBytes": "32",
						"value": "t_uint256"
					},
					"t_uint256": {
						"encoding": "inplace",
						"label": "uint256",
						"numberOfBytes": "32"
					}
				}
			},
			"userdoc": {
				"errors": {
					"ExceedsBankCap(uint256,uint256)": [
						{
							"notice": "Se lanza cuando el nuevo balance del contrato excede bankCap"
						}
					],
					"ExceedsWithdrawLimit(uint256,uint256)": [
						{
							"notice": "Se lanza cuando el retiro excede withdrawLimit"
						}
					],
					"InsufficientBalance(uint256,uint256)": [
						{
							"notice": "Se lanza cuando el usuario intenta retirar más ETH que lo que tiene disponible "
						}
					],
					"ReentrancyAttack()": [
						{
							"notice": "Se lanza si se detecta reentrancy"
						}
					],
					"TransferFailed(address,uint256)": [
						{
							"notice": "Se lanza si la transferencia nativa falla"
						}
					],
					"ZeroDeposit()": [
						{
							"notice": "Se lanza si el depósito es 0"
						}
					]
				},
				"events": {
					"Deposit(address,uint256)": {
						"notice": "Evento emitido cuando un usario realiza un depósito"
					},
					"Withdrawal(address,uint256)": {
						"notice": "Evento emitido cuando un usuario realiza un retiro"
					}
				},
				"kind": "user",
				"methods": {
					"bankBalance()": {
						"notice": "Devuelve el balance total retenido por el contrato"
					},
					"bankCap()": {
						"notice": "Límite global de depósitos del banco"
					},
					"constructor": {
						"notice": "Constructor para inicializar los límites del banco"
					},
					"getBalance(address)": {
						"notice": "Devuelve el saldo almacenado para `user`"
					},
					"withdraw(uint256)": {
						"notice": "Retira `amount` ETH de la bóveda del remitente"
					},
					"withdrawLimit()": {
						"notice": "Límite máximo por retiro"
					}
				},
				"notice": "Este contrato permite a los usuarios depositar y retirar ETH con límites definidos",
				"version": 1
			}
		}
	}
}